{
  "_format": "hh-sol-artifact-1",
  "contractName": "NFgenesList",
  "sourceName": "contracts/NFgenesList.sol",
  "abi": [
    {
      "inputs": [
        {
          "internalType": "string",
          "name": "_geneList",
          "type": "string"
        }
      ],
      "stateMutability": "nonpayable",
      "type": "constructor"
    },
    {
      "anonymous": false,
      "inputs": [
        {
          "indexed": true,
          "internalType": "address",
          "name": "previousOwner",
          "type": "address"
        },
        {
          "indexed": true,
          "internalType": "address",
          "name": "newOwner",
          "type": "address"
        }
      ],
      "name": "OwnershipTransferred",
      "type": "event"
    },
    {
      "inputs": [],
      "name": "geneList",
      "outputs": [
        {
          "internalType": "string",
          "name": "",
          "type": "string"
        }
      ],
      "stateMutability": "view",
      "type": "function"
    },
    {
      "inputs": [],
      "name": "owner",
      "outputs": [
        {
          "internalType": "address",
          "name": "",
          "type": "address"
        }
      ],
      "stateMutability": "view",
      "type": "function"
    },
    {
      "inputs": [],
      "name": "renounceOwnership",
      "outputs": [],
      "stateMutability": "nonpayable",
      "type": "function"
    },
    {
      "inputs": [
        {
          "internalType": "address",
          "name": "newOwner",
          "type": "address"
        }
      ],
      "name": "transferOwnership",
      "outputs": [],
      "stateMutability": "nonpayable",
      "type": "function"
    },
    {
      "inputs": [
        {
          "internalType": "string",
          "name": "_geneList",
          "type": "string"
        }
      ],
      "name": "updateGeneList",
      "outputs": [],
      "stateMutability": "nonpayable",
      "type": "function"
    }
  ],
  "bytecode": "0x60806040523480156200001157600080fd5b5060405162000e0338038062000e03833981810160405281019062000037919062000390565b620000576200004b6200007760201b60201c565b6200007f60201b60201c565b80600190805190602001906200006f92919062000143565b505062000446565b600033905090565b60008060009054906101000a900473ffffffffffffffffffffffffffffffffffffffff169050816000806101000a81548173ffffffffffffffffffffffffffffffffffffffff021916908373ffffffffffffffffffffffffffffffffffffffff1602179055508173ffffffffffffffffffffffffffffffffffffffff168173ffffffffffffffffffffffffffffffffffffffff167f8be0079c531659141344cd1fd0a4f28419497f9722a3daafe3b4186f6b6457e060405160405180910390a35050565b828054620001519062000410565b90600052602060002090601f016020900481019282620001755760008555620001c1565b82601f106200019057805160ff1916838001178555620001c1565b82800160010185558215620001c1579182015b82811115620001c0578251825591602001919060010190620001a3565b5b509050620001d09190620001d4565b5090565b5b80821115620001ef576000816000905550600101620001d5565b5090565b6000604051905090565b600080fd5b600080fd5b600080fd5b600080fd5b6000601f19601f8301169050919050565b7f4e487b7100000000000000000000000000000000000000000000000000000000600052604160045260246000fd5b6200025c8262000211565b810181811067ffffffffffffffff821117156200027e576200027d62000222565b5b80604052505050565b600062000293620001f3565b9050620002a1828262000251565b919050565b600067ffffffffffffffff821115620002c457620002c362000222565b5b620002cf8262000211565b9050602081019050919050565b60005b83811015620002fc578082015181840152602081019050620002df565b838111156200030c576000848401525b50505050565b6000620003296200032384620002a6565b62000287565b9050828152602081018484840111156200034857620003476200020c565b5b62000355848285620002dc565b509392505050565b600082601f83011262000375576200037462000207565b5b81516200038784826020860162000312565b91505092915050565b600060208284031215620003a957620003a8620001fd565b5b600082015167ffffffffffffffff811115620003ca57620003c962000202565b5b620003d8848285016200035d565b91505092915050565b7f4e487b7100000000000000000000000000000000000000000000000000000000600052602260045260246000fd5b600060028204905060018216806200042957607f821691505b6020821081141562000440576200043f620003e1565b5b50919050565b6109ad80620004566000396000f3fe608060405234801561001057600080fd5b50600436106100575760003560e01c806325611deb1461005c5780636a53ed7d1461007a578063715018a6146100965780638da5cb5b146100a0578063f2fde38b146100be575b600080fd5b6100646100da565b60405161007191906105af565b60405180910390f35b610094600480360381019061008f919061071a565b610168565b005b61009e6101fe565b005b6100a8610286565b6040516100b591906107a4565b60405180910390f35b6100d860048036038101906100d391906107eb565b6102af565b005b600180546100e790610847565b80601f016020809104026020016040519081016040528092919081815260200182805461011390610847565b80156101605780601f1061013557610100808354040283529160200191610160565b820191906000526020600020905b81548152906001019060200180831161014357829003601f168201915b505050505081565b6101706103a7565b73ffffffffffffffffffffffffffffffffffffffff1661018e610286565b73ffffffffffffffffffffffffffffffffffffffff16146101e4576040517f08c379a00000000000000000000000000000000000000000000000000000000081526004016101db906108c5565b60405180910390fd5b80600190805190602001906101fa929190610473565b5050565b6102066103a7565b73ffffffffffffffffffffffffffffffffffffffff16610224610286565b73ffffffffffffffffffffffffffffffffffffffff161461027a576040517f08c379a0000000000000000000000000000000000000000000000000000000008152600401610271906108c5565b60405180910390fd5b61028460006103af565b565b60008060009054906101000a900473ffffffffffffffffffffffffffffffffffffffff16905090565b6102b76103a7565b73ffffffffffffffffffffffffffffffffffffffff166102d5610286565b73ffffffffffffffffffffffffffffffffffffffff161461032b576040517f08c379a0000000000000000000000000000000000000000000000000000000008152600401610322906108c5565b60405180910390fd5b600073ffffffffffffffffffffffffffffffffffffffff168173ffffffffffffffffffffffffffffffffffffffff16141561039b576040517f08c379a000000000000000000000000000000000000000000000000000000000815260040161039290610957565b60405180910390fd5b6103a4816103af565b50565b600033905090565b60008060009054906101000a900473ffffffffffffffffffffffffffffffffffffffff169050816000806101000a81548173ffffffffffffffffffffffffffffffffffffffff021916908373ffffffffffffffffffffffffffffffffffffffff1602179055508173ffffffffffffffffffffffffffffffffffffffff168173ffffffffffffffffffffffffffffffffffffffff167f8be0079c531659141344cd1fd0a4f28419497f9722a3daafe3b4186f6b6457e060405160405180910390a35050565b82805461047f90610847565b90600052602060002090601f0160209004810192826104a157600085556104e8565b82601f106104ba57805160ff19168380011785556104e8565b828001600101855582156104e8579182015b828111156104e75782518255916020019190600101906104cc565b5b5090506104f591906104f9565b5090565b5b808211156105125760008160009055506001016104fa565b5090565b600081519050919050565b600082825260208201905092915050565b60005b83811015610550578082015181840152602081019050610535565b8381111561055f576000848401525b50505050565b6000601f19601f8301169050919050565b600061058182610516565b61058b8185610521565b935061059b818560208601610532565b6105a481610565565b840191505092915050565b600060208201905081810360008301526105c98184610576565b905092915050565b6000604051905090565b600080fd5b600080fd5b600080fd5b600080fd5b7f4e487b7100000000000000000000000000000000000000000000000000000000600052604160045260246000fd5b61062782610565565b810181811067ffffffffffffffff82111715610646576106456105ef565b5b80604052505050565b60006106596105d1565b9050610665828261061e565b919050565b600067ffffffffffffffff821115610685576106846105ef565b5b61068e82610565565b9050602081019050919050565b82818337600083830152505050565b60006106bd6106b88461066a565b61064f565b9050828152602081018484840111156106d9576106d86105ea565b5b6106e484828561069b565b509392505050565b600082601f830112610701576107006105e5565b5b81356107118482602086016106aa565b91505092915050565b6000602082840312156107305761072f6105db565b5b600082013567ffffffffffffffff81111561074e5761074d6105e0565b5b61075a848285016106ec565b91505092915050565b600073ffffffffffffffffffffffffffffffffffffffff82169050919050565b600061078e82610763565b9050919050565b61079e81610783565b82525050565b60006020820190506107b96000830184610795565b92915050565b6107c881610783565b81146107d357600080fd5b50565b6000813590506107e5816107bf565b92915050565b600060208284031215610801576108006105db565b5b600061080f848285016107d6565b91505092915050565b7f4e487b7100000000000000000000000000000000000000000000000000000000600052602260045260246000fd5b6000600282049050600182168061085f57607f821691505b6020821081141561087357610872610818565b5b50919050565b7f4f776e61626c653a2063616c6c6572206973206e6f7420746865206f776e6572600082015250565b60006108af602083610521565b91506108ba82610879565b602082019050919050565b600060208201905081810360008301526108de816108a2565b9050919050565b7f4f776e61626c653a206e6577206f776e657220697320746865207a65726f206160008201527f6464726573730000000000000000000000000000000000000000000000000000602082015250565b6000610941602683610521565b915061094c826108e5565b604082019050919050565b6000602082019050818103600083015261097081610934565b905091905056fea264697066735822122016c50d5f3b9c8014c8145aa192d1eb92797a0cc930422e9c1c724d34bf39c71b64736f6c634300080b0033",
  "linkReferences": {},
  "deployedLinkReferences": {}
}